:1009AC003C325F646973706C617931323E0000EFE8
:0F09BC00DFBF7F102030405060708090A000C0DF
:10090A00140C0000000000000000000000000000BD
:10091A000000000000001421000000000000000098
:0C092A00000000000000000000000000C1
:03002300020A1EB0
:010A1E0032A5
:10096200120937E5099009BB93F5A065A060091249
:1009720009F912088C1208D30509E509640470020A
:07098200F50912098980DC70
:10098900E4FFFEFDFCC3ED94F4EC64809481500710
:100999000DBD00010C80EE0FBF00010EBE01E6BFC8
:0209A900F4E375
:0109AB002229
:1009F900E50870047F0180027F008F08E50824FF65
:030A0900928022B6
:10088C0020A30330A74020A10920A706E4F50AF510
:10089C000B22850A0B20A30FE50975F003A424BFD6
:1008AC00F582E434098019E50975F003A420A20946
:1008BC0024C0F582E43409800724C1F582E43409AC
:0708CC00F583E493F50A2215
:100A0C00D2B4C2ACC2998F993099FDC299D2ACC202
:020A1C00B42202
:1008D300E4F5357BFF7A0979AC1209E4AE07E53517
:1008E300C39E5022EE24FDB53504AF0A8011EE24D9
:1008F300FEB53504AF0B8007E5359009AC93FF12C5
:060903000A0C053580D846
:0109090022CB
:10093700C2B4E4F52075985075CCDC75CADC75CD6A
:10094700FF75CBFF75C830C299C298D2ACD2AFD26F
:0B095700CAF50AF50B750801F509222E
:03000000020800F3
:0C080000787FE4F6D8FD758135020847CA
:1009E400E4FFFE1209CB600C0FEF70010E09E970F1
:0509F400F20A80EF2271
:10080C00020962E493A3F8E493A34003F68001F297
:10081C0008DFF48029E493A3F85407240CC8C333ED
:10082C00C4540F4420C8834004F456800146F6DFBC
:10083C00E4800B010204081020408090090AE47E39
:10084C00019360BCA3FF543F30E509541FFEE493B1
:10085C00A360010ECF54C025E060A840B8E493A378
:10086C00FAE493A3F8E493A3C8C582C8CAC583CAA3
:10087C00F0A3C8C582C8CAC583CADFE9DEE780BE5B
:0109360000C0
:1009CB00BB010689828A83E0225002E722BBFE022A
:0909DB00E32289828A83E493225D
:00000001FF
