:1009DA003C325F646973706C6179262A3E0000EFCD
:0F09EA00DFBF7F0102030405060708090A0A0A96
:10093800142100000000000000000000000000007A
:10094800000000000000140D00000000000000007E
:0C09580000000000000000000000000093
:03002300020A4C82
:010A4C003277
:10099000120965E5099009E993F5A065A0600912BF
:1009A0000A271208F112088C0509E509640470028F
:0709B000F5091209B780DC14
:1009B700E4FFFEFDFCC3ED94C8EC6480948050070F
:1009C7000DBD00010C80EE0FBF00010EEF64644EF9
:0209D70070E3CB
:0109D90022FB
:100A2700E50870047F0180027F008F08E50824FF36
:030A370092802288
:1008F10020A30330A74020A10920A706E4F50AF5AB
:100901000B22850A0B20A30FE50975F003A424ED42
:10091100F582E434098019E50975F003A420A209E0
:1009210024EEF582E43409800724EFF582E43409EA
:07093100F583E493F50A22AF
:100A3A00D2B4C2ACC2998F993099FDC299D2ACC2D4
:020A4A00B422D4
:10088C00E4F5357BFF7A0979DA120A12AE07E53501
:10089C00C39E5032E5359009DA93FFB42609740DE6
:1008AC002535F8A60A801BEFB42A09740D2535F8F6
:1008BC00A60B800EE5359009DA93FF740D2535F8FB
:1008CC00A607053580C8E4F535E535C39E5015748B
:1008DC000D2535F8E6FF120A3A740D2535F8E4F6C5
:0408EC00053580E569
:0108F00022E5
:10096500C2B4E4F50C75985075CCDC75CADC75CD50
:10097500FF75CBFF75C830C299C298D2ACD2AFD241
:0B098500CAF50AF50B750801F5092200
:03000000020800F3
:0C080000787FE4F6D8FD758135020847CA
:100A1200E4FFFE1209F9600C0FEF70010E09E97094
:050A2200F20A80EF2242
:10080C00020990E493A3F8E493A34003F68001F269
:10081C0008DFF48029E493A3F85407240CC8C333ED
:10082C00C4540F4420C8834004F456800146F6DFBC
:10083C00E4800B0102040810204080900938E47E0B
:10084C00019360BCA3FF543F30E509541FFEE493B1
:10085C00A360010ECF54C025E060A840B8E493A378
:10086C00FAE493A3F8E493A3C8C582C8CAC583CAA3
:10087C00F0A3C8C582C8CAC583CADFE9DEE780BE5B
:010964000092
:1009F900BB010689828A83E0225002E722BBFE02FC
:090A0900E32289828A83E493222E
:00000001FF
