:10097F003C325F646973706C617931323E0000EF15
:0F098F00DFBF7F102030405060708090A000C00C
:1009B700140D00000000000000000000000000000F
:0609C7000000000000002A
:03002300020A08C6
:010A080032BB
:1009350012090AE50990098E93F5A065A0600912D0
:1009450009E312088C1208D30509E509640470024D
:07095500F50912095C80DCCA
:10095C00E4FFFEFDFCC3ED94F4EC6480948150073D
:10096C000DBD00010C80EE0FBF00010EBE01E6BFF5
:02097C00F4E3A2
:01097E002256
:1009E300E50870047F0180027F008F08E50824FF7B
:0309F300928022CD
:10088C0020A30330A74020A10920A706E4F50AF510
:10089C000B22850A0B20A30FE50975F003A4249203
:1008AC00F582E434098019E50975F003A420A20946
:1008BC002493F582E4340980072494F582E4340906
:0708CC00F583E493F50A2215
:1009F600D2B4C2ACC2998F993099FDC299D2ACC219
:020A0600B42218
:1008D300E4F5217BFF7A09797F1209CEAE07E52182
:1008E300C39E5022EE24FDB52104AF0A8011EE24ED
:1008F300FEB52104AF0B8007E52190097F93FF121A
:0609030009F6052180D871
:0109090022CB
:10090A00C2B4E4F50C75985075CCDC75CADC75CDAB
:10091A00FF75CBFF75C830C299C298D2ACD2AFD29C
:0B092A00CAF50AF50B750801F509225B
:03000000020800F3
:0C080000787FE4F6D8FD758121020847DE
:1009CE00E4FFFE12099E600C0FEF70010E09E97034
:0509DE00F20A80EF2287
:10080C00020935E493A3F8E493A34003F68001F2C4
:10081C0008DFF48029E493A3F85407240CC8C333ED
:10082C00C4540F4420C8834004F456800146F6DFBC
:10083C00E4800B01020408102040809009B7E47E8C
:10084C00019360BCA3FF543F30E509541FFEE493B1
:10085C00A360010ECF54C025E060A840B8E493A378
:10086C00FAE493A3F8E493A3C8C582C8CAC583CAA3
:10087C00F0A3C8C582C8CAC583CADFE9DEE780BE5B
:0109CD000029
:10099E00BB010689828A83E0225002E722BBFE0257
:0909AE00E32289828A83E493228A
:00000001FF
