:100000000200260200DE1200F11200C9AF08EF90D4
:1000100000FE9390FD00F09000FEE49390FE00F04F
:0200200080EA74
:100023000200B2787FE4F6D8FD75810802006D0204
:100033000006E493A3F8E493A34003F68001F208D7
:10004300DFF48029E493A3F85407240CC8C333C412
:10005300540F4420C8834004F456800146F6DFE47D
:10006300800B01020408102040809000FAE47E0116
:100073009360BCA3FF543F30E509541FFEE493A3F0
:1000830060010ECF54C025E060A840B8E493A3FA02
:10009300E493A3F8E493A3C8C582C8CAC583CAF08E
:1000A300A3C8C582C8CAC583CADFE9DEE780BEC06C
:1000B300E0C0D030980B85990874D02508F508C2A4
:1000C30098D0D0D0E03275985075C83875CCDC75AF
:1000D300CADC75CDFF75CBFFD2CA22C0E0C0D00504
:1000E30008E508B40A03750800D0D0D0E032D2ACDA
:1000F300D2A8D288D2AF22010800003F065B4F6628
:050103006D7D077F6F18
:00000001FF
