:0F08FA003C325F646973706C617931323E00008B
:1008D10014090000000000000000000000000000FA
:0608E10000000000000011
:03002300020909C6
:08090900309802C290C298323E
:050911001208AF80FE9A
:10088C00E4FFFEFDFCC3ED94F4EC6480948150070E
:10089C000DBD00010C80EE0FBF00010EBE01E6BFC6
:0208AC00F4E373
:0108AE002227
:0109160022BE
:1008E800D2B4C2ACC2998F993099FDC299D2ACC228
:0208F800B42228
:1008AF00C2B4E4F50875985075CCDC75CADC75CD0B
:1008BF00FF75CBFF75C830C299C298D2ACD2AFD2F8
:0208CF00CA223B
:03000000020800F3
:0C080000787FE4F6D8FD75811C020847E3
:10080C00020911E493A3F8E493A34003F68001F2E8
:10081C0008DFF48029E493A3F85407240CC8C333ED
:10082C00C4540F4420C8834004F456800146F6DFBC
:10083C00E4800B01020408102040809008D1E47E73
:10084C00019360BCA3FF543F30E509541FFEE493B1
:10085C00A360010ECF54C025E060A840B8E493A378
:10086C00FAE493A3F8E493A3C8C582C8CAC583CAA3
:10087C00F0A3C8C582C8CAC583CADFE9DEE780BE5B
:0108E7000010
:00000001FF
