:100A6800003C335F646973706C617931323E0020F9
:100A7800202020204D6E69656A212020202020003A
:100A8800202020202057696563656A2120202020C6
:100A9800002020202020427261776F212020202012
:100AA800200020202020202020202020202020205E
:030AB800202000FB
:100DF30014280000000000000000000000000000B4
:060E0300000000000000E9
:0300230002099F30
:10099F00C0E0C0F0C083C082C0D075D000C000C01E
:1009AF0001C002C003C004C005C006C00730982FA5
:1009BF00E599B43C03120DD6AF247E00D3EF94FF1C
:1009CF007480947F4019EF941474809480501005B4
:1009DF002474282FF8A699E599B43E03120BF8C298
:1009EF0098D007D006D005D004D003D002D001D0C4
:0C09FF0000D0D0D082D083D0F0D0E03205
:0B0E2900120ABB120D60120E3480FE96
:100BF800750BFF750C0A750D69750E00750F0A7B6C
:100C0800007A007928120930EF7027E534643E70C5
:100C180021E532640A7004F5238008E53275F00A8C
:100C2800A4F523E533640A6006E5332523F523128A
:030C38000A0B2282
:100A0B00E523D3952140087BFF7A0A7977800DE5A2
:100A1B0023C395217BFF50127A0A79887F04120D2C
:100A2B002A0522AD23AF22020B5D7A0A79997F0446
:100A3B00120D2A0522AD23AF22120B5D120DB3E46A
:100A4B00F522120E1C8F21E4F523AD23AF22120BDE
:0D0A5B005D7BFF7A0A79AA7F04120D2A2222
:100DD600E4F524C3E524941474809480500B74289D
:0D0DE6002524F8E4F6052480EAE4F5242233
:0D0E1C00120BAB7C007D64120819AF05229B
:100DB300E4FFFEFDFCC3ED9488EC6480949350073C
:100DC3000DBD00010C80EE0FBF00010EBE13E6BF88
:020DD30088E3B3
:010DD50022FB
:100E0A00D2B4C2ACC2998F993099FDC299D2ACC200
:020E1A00B42200
:100D6000C2B4E4F52475985075CCDC75CADC75CD39
:100D7000FF75CBFF75C830C299C298D2ACD2AFD242
:0C0D8000CAF522120E1C8F21E4F523227C
:100C3B002020506F64656A73636965203030202013
:100C4B00202054776F6A207479703A20303020203E
:100C5B002B2B2B2B2B2B2B2B2B2B2B2B2B2B2B2BD9
:100C6B002020202020202020202020202020202079
:010C7B000078
:100CF200C2A4C2A5EFC4540F53A0F042A0D2A6C210
:100D0200A6EF540F53A0F042A0D2A6C2A643A00F52
:100D1200D2A5C2A4D20030000ED2A6A2A39200C2D3
:070D2200A6D2A6C2A680EFD5
:010D290022A7
:030C7C004430FF02
:100C7F00D2A4C2A5EFC4540F53A0F042A0D2A6C273
:100C8F00A6EF540F53A0F042A0D2A6C2A643A00FC6
:100C9F00D2A5C2A4D20130010ED2A6A2A39201C244
:070CAF00A6D2A6C2A680EF49
:010CB600221B
:030E3D00020C7F25
:100B0E00AC07EC3395E0FEEF64014E7007ED247FE9
:100B1E00FF120CF2ECFF3395E0FEEF64024E70070D
:100B2E00ED24BFFF120CF2ECFF3395E0FEEF6403F1
:100B3E004E7007ED248FFF120CF2AF04EF3395E0E9
:0F0B4E00FEEF64044E7007ED24CFFF120CF2226D
:060D2A008B138A148915E9
:100D30007D01120B0E1DEDFF3395E0FEC3EF941005
:100D4000EE648094805018AB130515E515AA147055
:0F0D500002051414F9120800FF120E3D0D80D792
:010D5F002271
:100CB7008B108A1189127F01120D2AAB10E51224BD
:100CC70010F9E43511FA7F02120D2AAB10E5122450
:100CD70020F9E43511FA7F03120D2AAB10E512242F
:0B0CE70030F9E43511FA7F04020D2AF9
:090E34007BFF7A0C793B020CB73C
:100ABB00120DA675A083D2A6120D8CC2A6120D998B
:100ACB00D2A6120D8CC2A6120D8CD2A6120D8CC200
:100ADB00A6120D8CC2A0D2A6120D8CC2A6120D8C22
:100AEB007F28120CF27F01120CF27F08120CF27F9E
:100AFB000C120CF27F06120CF27F0F120CF27F011C
:030B0B00020CF2E7
:100B5D00EF75F00A84FCEF75F00A84ABF0ED75F0DB
:100B6D000A84FAED75F00A84ADF07F8C120CF2EC6C
:100B7D00120C7C7F8D120CF2EB120C7C7F80120C10
:100B8D00F27FCC120CF2EA4430FF120C7F7FCD12B3
:0E0B9D000CF2ED4430FF120C7F7F80020CF250
:100D8C007526047525E0D525FDD526FA2275261481
:100D9C00752570D525FDD526FA227526C3752589AE
:070DAC00D525FDD526FA2232
:030000000208A44F
:0C08A400787FE4F6D8FD75813B0208EB7C
:10080000BB010689828A83E0225002E722BBFE02F6
:09081000E32289828A83E4932229
:10081900C2D5EC30E709B2D5E4C39DFDE49CFCEEFA
:1008290030E715B2D5E4C39FFFE49EFE12084FC31B
:10083900E49DFDE49CFC800312084F30D507C3E416
:060849009FFFE49EFE2269
:100BAB00AC16AD17AE18AF197810EC4D4E4F700454
:100BBB007CA57DA5C3EC13FCED13FDEE13FEEF132B
:100BCB00FF5010EC64CCFCED644CFDEE644EFEEF7C
:100BDB0064CEFFD8DF8C168D178E188F19EE547FCD
:0D0BEB00FE228E168F1774A5F518F519223D
:100930008B088A09890AAB0BAA0CA90D120800FEC4
:10094000AB08AA09A90A120800FF6E702BEF600D10
:10095000E50F150F7002150E14450E70037F00226F
:100960007401250AF50AE43509F5097401250DF528
:100970000DE4350CF50C80BEAB08AA09A90A1208D3
:1009800000FDD3EE6480F8ED64809840037F01227F
:0F099000AB0BAA0CA90D120800FFC3ED9FFF22AD
:1008B000020E29E493A3F8E493A34003F68001F227
:1008C00008DFF48029E493A3F85407240CC8C33349
:1008D000C4540F4420C8834004F456800146F6DF18
:1008E000E4800B0102040810204080900DF3E47EA8
:1008F000019360BCA3FF543F30E509541FFEE4930D
:10090000A360010ECF54C025E060A840B8E493A3D3
:10091000FAE493A3F8E493A3C8C582C8CAC583CAFE
:10092000F0A3C8C582C8CAC583CADFE9DEE780BEB6
:010E090000E8
:10084F00BC000BBE0029EF8DF084FFADF022E4CC8D
:10085F00F875F008EF2FFFEE33FEEC33FCEE9DEC56
:10086F00984005FCEE9DFE0FD5F0E9E4CEFD22ED9C
:10087F00F8F5F0EE8420D21CFEADF075F008EF2FE6
:10088F00FFED33FD4007985006D5F0F222C398FDD7
:05089F000FD5F0EA2274
:00000001FF
