:10096E00003C325F646973706C617931323E00BF56
:09097E0086DBCFE6EDFD87FFEFFB
:1009A000140B000000000000000000000000000028
:0609B00000000000000041
:030003000209DE11
:0309DE00050A32D5
:030023000209E1EE
:0309E100C2983287
:100934001208E57408250AF8E690097D9390FE00F4
:0D094400F0E50990097D9390FD00F080E63C
:10088C00E4F51FFF752001FB7A00790B1209B7E51F
:10089C001FC39F503DE52064017037EF24FDB51F49
:1008AC000A740B251FF8E6F5088023EF24FEB51F0C
:1008BC000A740B251FF8E6F5098013740B251FF835
:1008CC00E6FEE51F90096F936E6003E4F520051FAB
:0808DC0080BD750801750901DA
:0108E40022F1
:10095100E4F50AC3E50A941474809480500B740B77
:0D096100250AF87630050A80EAE4F50A223E
:10091100E4FFFEFDFCC3ED94C8EC648094805007B5
:100921000DBD00010C80EE0FBF00010EEF64C84E3B
:0209310070E371
:0109330022A1
:1009CC00D2B4C2ACC2998F993099FDC299D2ACC243
:0209DC00B42243
:1008E500C2B4E4F50A75985075C83075CCDC75CA84
:1008F500DC75CDFF75CBFFD2CAC299C298D2ACD2F6
:0C090500A8D288D2AF7508017509022243
:03000000020800F3
:0C080000787FE4F6D8FD758120020847DF
:1009B700E4FFFE120987600C0FEF70010E09E97062
:0509C700F20A80EF229E
:10080C00020934E493A3F8E493A34003F68001F2C5
:10081C0008DFF48029E493A3F85407240CC8C333ED
:10082C00C4540F4420C8834004F456800146F6DFBC
:10083C00E4800B01020408102040809009A0E47EA3
:10084C00019360BCA3FF543F30E509541FFEE493B1
:10085C00A360010ECF54C025E060A840B8E493A378
:10086C00FAE493A3F8E493A3C8C582C8CAC583CAA3
:10087C00F0A3C8C582C8CAC583CADFE9DEE780BE5B
:0109B6000040
:10098700BB010689828A83E0225002E722BBFE026E
:09099700E32289828A83E49322A1
:00000001FF
