:100A1600003C325F646973706C617931323E003F2D
:090A2600065B4F666D7D077F6FD2
:100A4800140B00000000000000000000000000007F
:060A580000000000000098
:03000300020A7975
:070A7900750900750A003247
:030023000208FBD5
:1008FB00C0E0C0F0C083C082C0D075D000C000C0C3
:10090B0001C002C003C004C005C006C00730982F49
:10091B00E599B43C031209F9AF087E00D3EF94FFBD
:10092B007480947F4019EF94147480948050100558
:10093B0008740B2FF8A699E599B43E03120967C208
:10094B0098D007D006D005D004D003D002D001D068
:0C095B0000D0D0D082D083D0F0D0E032A9
:080A71001209A21209D080FB5A
:100967007522FF75230A75241775250075260A7BDE
:10097700007A00790B12088CEF701FE517643E7040
:1009870019E515640A7004F50A800385150AE5164A
:0B099700640A7003F50922851609228E
:1009F900E4F508C3E508941474809480500B740BD3
:0D0A09002508F8E4F6050880EAE4F5082267
:1009D000E4FFEFC394C874809480501CD2A0D2A1CD
:1009E000E509900A2593F580C2A0D2A0E50A93F507
:0809F00080C2A1D2A10F80DA40
:0109F80022DC
:100A5F00D2B4C2ACC2998F993099FDC299D2ACC2AF
:020A6F00B422AF
:1009A200C2B4E4F50875985075C83075CCDC75CAC8
:1009B200DC75CDFF75CBFFD2CAC299C298D2ACD238
:0E09C200A8D288D2AFF509F50AC2A0D2A122B0
:03000000020800F3
:0C080000787FE4F6D8FD758126020847D9
:10088C008B1F8A208921AB22AA23A924120A2FFEAE
:10089C00AB1FAA20A921120A2FFF6E702BEF600D3F
:1008AC00E52615267002152514452570037F0022B8
:1008BC0074012521F521E43520F52074012524F55A
:1008CC0024E43523F52380BEAB1FAA20A921120AEC
:1008DC002FFDD3EE6480F8ED64809840037F0122F5
:0F08EC00AB22AA23A924120A2FFFC3ED9FFF22DC
:10080C00020A71E493A3F8E493A34003F68001F287
:10081C0008DFF48029E493A3F85407240CC8C333ED
:10082C00C4540F4420C8834004F456800146F6DFBC
:10083C00E4800B0102040810204080900A48E47EFA
:10084C00019360BCA3FF543F30E509541FFEE493B1
:10085C00A360010ECF54C025E060A840B8E493A378
:10086C00FAE493A3F8E493A3C8C582C8CAC583CAA3
:10087C00F0A3C8C582C8CAC583CADFE9DEE780BE5B
:010A5E000097
:100A2F00BB010689828A83E0225002E722BBFE02C5
:090A3F00E32289828A83E49322F8
:00000001FF
