:100AC4003C335F646973706C6179262A3E003C3262
:100AD4005F646973706C617931323E003F065B4F2D
:060AE400666D7D077F6FC7
:100A6E00141F000000000000000000000000000045
:100A7E00000000000000140B000000000000000049
:0C0A8E000000000000000000000000005C
:03000300020800F0
:10080000C0E0C0F0C083C082C0D075D000C000C0BE
:0D08100001C002C003C004C005C006C0073F
:10081D007533007BFF7A0A79C4120B208F34E533D0
:10082D00C395345032E533900AC493FFB42609744E
:10083D000B2533F8A609801BEFB42A09740B253359
:10084D00F8A60A800EE533900AC493FF740B253386
:10085D00F8A607053380C7753300E533C3953450CB
:10086D0015740B2533F8E6FF120B35740B2533F891
:06087D007600053380E463
:10088300D007D006D005D004D003D002D001D000C9
:0B089300D0D0D082D083D0F0D0E03273
:0300230002099936
:10099900C0E0C0F0C083C082C0D075D000C000C024
:1009A90001C002C003C004C005C006C00730982FAB
:1009B900E599B43C03120AEAAF087E00D3EF94FF2D
:1009C9007480947F4019EF941474809480501005BA
:1009D90008741F2FF8A699E599B43E03120A05C2B7
:1009E90098D007D006D005D004D003D002D001D0CA
:0C09F90000D0D0D082D083D0F0D0E0320B
:080B4700120A40120A9B80FB18
:100A05007538FF75390A753AD2753B00753C0A7B16
:100A1500007A00791F12092AEF701FE52B643E70DA
:100A250019E529640A7004F50A800385290AE52A6F
:0B0A3500640A7003F50922852A0922DB
:100AEA00E4F508C3E508941474809480500B741FCD
:0D0AFA002508F8E4F6050880EAE4F5082276
:100A9B00E4FFEFC394C874809480501CD2A0D2A101
:100AAB00E509900AE093F580C2A0D2A0E50A93F580
:080ABB0080C2A1D2A10F80DA74
:010AC3002210
:100B3500D2B4C2ACC2998F993099FDC299D2ACC2D8
:020B4500B422D8
:100A4000C2B4E4F50875985075C83075CCDC75CA29
:100A5000DC75CDFF75CBFFD2CAC299C298D2ACD299
:0E0A6000A8D288D2AFF509F50AC2A0D2A12211
:0300000002089E55
:0C089E00787FE4F6D8FD75813C0208E587
:10092A008B358A368937AB38AA39A93A120B07FEB2
:10093A00AB35AA36A937120B07FF6E702BEF600D85
:10094A00E53C153C7002153B14453B70037F0022C1
:10095A0074012537F537E43536F5367401253AF54D
:10096A003AE43539F53980BEAB35AA36A937120BC8
:10097A0007FDD3EE6480F8ED64809840037F01227E
:0F098A00AB38AA39A93A120B07FFC3ED9FFF2222
:100B2000E4FFFE120B07600C0FEF70010E09E97075
:050B3000F20A80EF2233
:1008AA00020B47E493A3F8E493A34003F68001F212
:1008BA0008DFF48029E493A3F85407240CC8C3334F
:1008CA00C4540F4420C8834004F456800146F6DF1E
:1008DA00E4800B0102040810204080900A6EE47E36
:1008EA00019360BCA3FF543F30E509541FFEE49313
:1008FA00A360010ECF54C025E060A840B8E493A3DA
:10090A00FAE493A3F8E493A3C8C582C8CAC583CA04
:10091A00F0A3C8C582C8CAC583CADFE9DEE780BEBC
:010A9A00005B
:100B0700BB010689828A83E0225002E722BBFE02EC
:090B1700E32289828A83E493221F
:00000001FF
